{"abi":[{"type":"constructor","inputs":[],"stateMutability":"nonpayable"},{"type":"function","name":"DEFAULT_ADMIN_ROLE","inputs":[],"outputs":[{"name":"","type":"bytes32","internalType":"bytes32"}],"stateMutability":"view"},{"type":"function","name":"OWNER_ROLE","inputs":[],"outputs":[{"name":"","type":"bytes32","internalType":"bytes32"}],"stateMutability":"view"},{"type":"function","name":"PACKAGE_ROLE","inputs":[],"outputs":[{"name":"","type":"bytes32","internalType":"bytes32"}],"stateMutability":"view"},{"type":"function","name":"VERIFIER_ROLE","inputs":[],"outputs":[{"name":"","type":"bytes32","internalType":"bytes32"}],"stateMutability":"view"},{"type":"function","name":"acceptShipment","inputs":[{"name":"packageAddress","type":"address","internalType":"address"}],"outputs":[],"stateMutability":"nonpayable"},{"type":"function","name":"approveShipmentEvent","inputs":[{"name":"packageAddress","type":"address","internalType":"address"}],"outputs":[],"stateMutability":"nonpayable"},{"type":"function","name":"createShipment","inputs":[{"name":"packageAddress","type":"address","internalType":"address"},{"name":"receiver","type":"address","internalType":"address"}],"outputs":[],"stateMutability":"nonpayable"},{"type":"function","name":"decodeShipmentEvent","inputs":[{"name":"data","type":"bytes","internalType":"bytes"}],"outputs":[{"name":"location","type":"string","internalType":"string"},{"name":"temperature","type":"uint256","internalType":"uint256"},{"name":"humidity","type":"uint256","internalType":"uint256"}],"stateMutability":"pure"},{"type":"function","name":"denyShipment","inputs":[{"name":"packageAddress","type":"address","internalType":"address"}],"outputs":[],"stateMutability":"nonpayable"},{"type":"function","name":"encodeShipmentEvent","inputs":[{"name":"location","type":"string","internalType":"string"},{"name":"temperature","type":"uint256","internalType":"uint256"},{"name":"humidity","type":"uint256","internalType":"uint256"}],"outputs":[{"name":"","type":"bytes","internalType":"bytes"}],"stateMutability":"pure"},{"type":"function","name":"getRoleAdmin","inputs":[{"name":"role","type":"bytes32","internalType":"bytes32"}],"outputs":[{"name":"","type":"bytes32","internalType":"bytes32"}],"stateMutability":"view"},{"type":"function","name":"grantAdminRole","inputs":[{"name":"a","type":"address","internalType":"address"}],"outputs":[],"stateMutability":"nonpayable"},{"type":"function","name":"grantRole","inputs":[{"name":"role","type":"bytes32","internalType":"bytes32"},{"name":"account","type":"address","internalType":"address"}],"outputs":[],"stateMutability":"nonpayable"},{"type":"function","name":"grantVerifierRole","inputs":[{"name":"a","type":"address","internalType":"address"}],"outputs":[],"stateMutability":"nonpayable"},{"type":"function","name":"hasRole","inputs":[{"name":"role","type":"bytes32","internalType":"bytes32"},{"name":"account","type":"address","internalType":"address"}],"outputs":[{"name":"","type":"bool","internalType":"bool"}],"stateMutability":"view"},{"type":"function","name":"proposeShipmentEvent","inputs":[{"name":"shipmentEvent","type":"bytes","internalType":"bytes"}],"outputs":[],"stateMutability":"nonpayable"},{"type":"function","name":"renounceRole","inputs":[{"name":"role","type":"bytes32","internalType":"bytes32"},{"name":"callerConfirmation","type":"address","internalType":"address"}],"outputs":[],"stateMutability":"nonpayable"},{"type":"function","name":"revokeRole","inputs":[{"name":"role","type":"bytes32","internalType":"bytes32"},{"name":"account","type":"address","internalType":"address"}],"outputs":[],"stateMutability":"nonpayable"},{"type":"function","name":"shipments","inputs":[{"name":"","type":"address","internalType":"address"}],"outputs":[{"name":"receiver","type":"address","internalType":"address"},{"name":"id","type":"uint256","internalType":"uint256"},{"name":"state","type":"uint8","internalType":"enum MultisigSupplyChain.ProductState"},{"name":"createdAt","type":"uint256","internalType":"uint256"},{"name":"updatedAt","type":"uint256","internalType":"uint256"},{"name":"nonce","type":"uint256","internalType":"uint256"},{"name":"proposedEvent","type":"bytes","internalType":"bytes"},{"name":"proposedEventExists","type":"bool","internalType":"bool"},{"name":"receiverAccepted","type":"bool","internalType":"bool"}],"stateMutability":"view"},{"type":"function","name":"startShipment","inputs":[{"name":"packageAddress","type":"address","internalType":"address"}],"outputs":[],"stateMutability":"nonpayable"},{"type":"function","name":"supportsInterface","inputs":[{"name":"interfaceId","type":"bytes4","internalType":"bytes4"}],"outputs":[{"name":"","type":"bool","internalType":"bool"}],"stateMutability":"view"},{"type":"event","name":"RoleAdminChanged","inputs":[{"name":"role","type":"bytes32","indexed":true,"internalType":"bytes32"},{"name":"previousAdminRole","type":"bytes32","indexed":true,"internalType":"bytes32"},{"name":"newAdminRole","type":"bytes32","indexed":true,"internalType":"bytes32"}],"anonymous":false},{"type":"event","name":"RoleGranted","inputs":[{"name":"role","type":"bytes32","indexed":true,"internalType":"bytes32"},{"name":"account","type":"address","indexed":true,"internalType":"address"},{"name":"sender","type":"address","indexed":true,"internalType":"address"}],"anonymous":false},{"type":"event","name":"RoleRevoked","inputs":[{"name":"role","type":"bytes32","indexed":true,"internalType":"bytes32"},{"name":"account","type":"address","indexed":true,"internalType":"address"},{"name":"sender","type":"address","indexed":true,"internalType":"address"}],"anonymous":false},{"type":"event","name":"shipmentAccepted","inputs":[{"name":"id","type":"uint256","indexed":false,"internalType":"uint256"},{"name":"packageAddress","type":"address","indexed":false,"internalType":"address"},{"name":"receiver","type":"address","indexed":false,"internalType":"address"}],"anonymous":false},{"type":"event","name":"shipmentCreated","inputs":[{"name":"id","type":"uint256","indexed":false,"internalType":"uint256"},{"name":"packageAddress","type":"address","indexed":false,"internalType":"address"}],"anonymous":false},{"type":"event","name":"shipmentEventApproved","inputs":[{"name":"id","type":"uint256","indexed":false,"internalType":"uint256"},{"name":"eventNonce","type":"uint256","indexed":false,"internalType":"uint256"},{"name":"packageAddress","type":"address","indexed":false,"internalType":"address"},{"name":"verifier","type":"address","indexed":false,"internalType":"address"}],"anonymous":false},{"type":"event","name":"shipmentEventProposed","inputs":[{"name":"id","type":"uint256","indexed":false,"internalType":"uint256"},{"name":"packageAddress","type":"address","indexed":false,"internalType":"address"},{"name":"proposedEvent","type":"bytes","indexed":false,"internalType":"bytes"}],"anonymous":false},{"type":"event","name":"shipmentStarted","inputs":[{"name":"id","type":"uint256","indexed":false,"internalType":"uint256"},{"name":"packageAddress","type":"address","indexed":false,"internalType":"address"},{"name":"verifier","type":"address","indexed":false,"internalType":"address"}],"anonymous":false},{"type":"event","name":"shipmentUnderReview","inputs":[{"name":"id","type":"uint256","indexed":false,"internalType":"uint256"},{"name":"packageAddress","type":"address","indexed":false,"internalType":"address"},{"name":"admin","type":"address","indexed":false,"internalType":"address"}],"anonymous":false},{"type":"error","name":"AccessControlBadConfirmation","inputs":[]},{"type":"error","name":"AccessControlUnauthorizedAccount","inputs":[{"name":"account","type":"address","internalType":"address"},{"name":"neededRole","type":"bytes32","internalType":"bytes32"}]}],"bytecode":{"object":"0x6080604052348015600e575f5ffd5b5060175f33601c565b5060c2565b5f828152602081815260408083206001600160a01b038516845290915281205460ff1660b9575f838152602081815260408083206001600160a01b03861684529091529020805460ff1916600117905560723390565b6001600160a01b0316826001600160a01b0316847f2f8788117e7eff1d82e926ec794901d17c78024a50270940304540a733656f0d60405160405180910390a450600160bc565b505f5b92915050565b611434806100cf5f395ff3fe608060405234801561000f575f5ffd5b5060043610610132575f3560e01c80637a84c950116100b4578063d51cd4ac11610079578063d51cd4ac1461029e578063d547741f146102c6578063e58378bb146102d9578063e7705db6146102ed578063fd96c4e914610301578063fe05d57a14610314575f5ffd5b80637a84c9501461024b57806391d148541461025e578063a217fddf14610271578063ad0f1dd714610278578063c634b78e1461028b575f5ffd5b806334687cbd116100fa57806334687cbd146101c957806336568abe146101dc5780635039d681146101ef57806351a40c191461021157806372f7292714610224575f5ffd5b806301ffc9a7146101365780630337c0611461015e5780630e3702cb14610173578063248a9ca3146101865780632f2ff15d146101b6575b5f5ffd5b610149610144366004610e52565b610334565b60405190151581526020015b60405180910390f35b61017161016c366004610e9b565b61036a565b005b610171610181366004610e9b565b61039d565b6101a8610194366004610eb4565b5f9081526020819052604090206001015490565b604051908152602001610155565b6101716101c4366004610ecb565b6104f8565b6101716101d7366004610e9b565b610522565b6101716101ea366004610ecb565b6105bb565b6102026101fd366004610f9c565b6105ee565b60405161015593929190611017565b61017161021f366004610f9c565b610619565b6101a87f1412d206f4cad3bcc9426108eb68d1147a102e198cc1d356629c14a5c3fc1f6881565b610171610259366004610e9b565b6107a2565b61014961026c366004610ecb565b61091c565b6101a85f81565b61017161028636600461103b565b610944565b610171610299366004610e9b565b610ab2565b6102b16102ac366004610e9b565b610ad3565b60405161015599989796959493929190611077565b6101716102d4366004610ecb565b610bb9565b6101a85f5160206113bf5f395f51905f5281565b6101a85f5160206113df5f395f51905f5281565b61017161030f366004610e9b565b610bdd565b6103276103223660046110f3565b610cdf565b6040516101559190611150565b5f6001600160e01b03198216637965db0b60e01b148061036457506301ffc9a760e01b6001600160e01b03198316145b92915050565b5f5160206113bf5f395f51905f5261038181610d10565b6103985f5160206113df5f395f51905f5283610d1d565b505050565b5f5160206113df5f395f51905f526103b481610d10565b60016001600160a01b0383165f908152600260208190526040909120015460ff1660048111156103e6576103e6611063565b1461045e5760405162461bcd60e51b815260206004820152603960248201527f535550504c595f434841494e3a20536869706d656e7420646f6573206e6f742060448201527f6578697374206f7220686173206265656e20737461727465640000000000000060648201526084015b60405180910390fd5b6001600160a01b0382165f818152600260208181526040808420808401805460ff19169094179093554260048401558380526009830182529283902080546001600160a01b031916339081179091556001830154845190815291820194909452918201929092527f86855b988d2dba329d11bc684bd0a0ca2c05ed6f869de0a4bd0aafadd8cc9fa7906060015b60405180910390a1505050565b5f8281526020819052604090206001015461051281610d10565b61051c8383610d1d565b50505050565b5f5160206113bf5f395f51905f5261053981610d10565b6001600160a01b0382165f90815260026020819052604090912042600480830191909155918101805491929160ff191660018302179055506001810154604080519182526001600160a01b038516602083015233908201527f070594441591291420e8d33924bf124d812e3f7d1f15da730753bff2a4c5426c906060016104eb565b6001600160a01b03811633146105e45760405163334bd91960e11b815260040160405180910390fd5b6103988282610dac565b60605f5f5f5f5f868060200190518101906106099190611162565b9199909850909650945050505050565b7f1412d206f4cad3bcc9426108eb68d1147a102e198cc1d356629c14a5c3fc1f6861064381610d10565b6002335f908152600260208190526040909120015460ff16600481111561066c5761066c611063565b146106895760405162461bcd60e51b8152600401610455906111e6565b335f9081526002602052604090206007015460ff16156107045760405162461bcd60e51b815260206004820152603060248201527f535550504c595f434841494e3a20416e206576656e742068617320616c72656160448201526f191e481899595b881c1c9bdc1bdcd95960821b6064820152608401610455565b335f90815260026020526040812060058101805491926107238361122a565b90915550504260048201556006810161073c84826112d1565b5060078101805460ff1916600117905560058101545f908152600882016020526040902061076a84826112d1565b507f1ab91b05d9d984e0e826575dfcf3ff8d0e35a4841f0ecbab8553d52e2c0fea45816001015433856040516104eb9392919061138c565b5f5160206113df5f395f51905f526107b981610d10565b60026001600160a01b0383165f908152600260208190526040909120015460ff1660048111156107eb576107eb611063565b146108085760405162461bcd60e51b8152600401610455906111e6565b6001600160a01b0382165f9081526002602052604090206007015460ff166108825760405162461bcd60e51b815260206004820152602760248201527f535550504c595f434841494e3a2050726f706f736564206576656e74206e6f7460448201526620666f756e642160c81b6064820152608401610455565b6001600160a01b0382165f81815260026020908152604080832042600482015560078101805460ff1916905560058101805485526009820184529382902080546001600160a01b03191633908117909155600182015494548351958652938501939093529083019390935260608201527f8ae53e7cf05f1d3fdb1850a05d287addd89edb75be8a75518b7e7504085e2aca906080016104eb565b5f918252602082815260408084206001600160a01b0393909316845291905290205460ff1690565b6001600160a01b0382165f9081526002602081905260408220015460ff16600481111561097357610973611063565b146109dc5760405162461bcd60e51b815260206004820152603360248201527f535550504c595f434841494e3a20536869706d656e742068617320616c726561604482015272191e481899595b881a5b9a5d1a585b1a5e9959606a1b6064820152608401610455565b6001600160a01b0382165f908152600260205260408120600180549192610a028361122a565b9091555050600180548282015560028201805460ff1916828002179055504260038201819055600482015580546001600160a01b0319166001600160a01b038316178155610a707f1412d206f4cad3bcc9426108eb68d1147a102e198cc1d356629c14a5c3fc1f6884610d1d565b50600154604080519182526001600160a01b03851660208301527fe0aaeb00d953844da6eddc472da9a14f02d14b22efa6b48036151e6758c4c0fa91016104eb565b5f610abc81610d10565b6103985f5160206113bf5f395f51905f5283610d1d565b600260208190525f918252604090912080546001820154928201546003830154600484015460058501546006860180546001600160a01b03909616979660ff9095169593949293919291610b269061124e565b80601f0160208091040260200160405190810160405280929190818152602001828054610b529061124e565b8015610b9d5780601f10610b7457610100808354040283529160200191610b9d565b820191905f5260205f20905b815481529060010190602001808311610b8057829003601f168201915b5050506007909301549192505060ff8082169161010090041689565b5f82815260208190526040902060010154610bd381610d10565b61051c8383610dac565b6001600160a01b038181165f90815260026020526040902054163314610c545760405162461bcd60e51b815260206004820152602660248201527f535550504c595f434841494e3a20596f7520617265206e6f742074686520726560448201526531b2b4bb32b960d11b6064820152608401610455565b6001600160a01b0381165f8181526002602081815260409283902042600482015560078101805461010061ff0019909116179055918201805460ff1916600317905560018201548351908152908101939093523383830152905190917fbd7ed5f4539d81d110b782b1cfe17ccf23a38762f0c6d486a60307f244b862d8919081900360600190a15050565b60605f848484604051602001610cf793929190611017565b60408051808303601f1901815291905295945050505050565b610d1a8133610e15565b50565b5f610d28838361091c565b610da5575f838152602081815260408083206001600160a01b03861684529091529020805460ff19166001179055610d5d3390565b6001600160a01b0316826001600160a01b0316847f2f8788117e7eff1d82e926ec794901d17c78024a50270940304540a733656f0d60405160405180910390a4506001610364565b505f610364565b5f610db7838361091c565b15610da5575f838152602081815260408083206001600160a01b0386168085529252808320805460ff1916905551339286917ff6391f5c32d9c69d2a47ea670b442974b53935d1edc7fd64eb21e047a839171b9190a4506001610364565b610e1f828261091c565b610e4e5760405163e2517d3f60e01b81526001600160a01b038216600482015260248101839052604401610455565b5050565b5f60208284031215610e62575f5ffd5b81356001600160e01b031981168114610e79575f5ffd5b9392505050565b80356001600160a01b0381168114610e96575f5ffd5b919050565b5f60208284031215610eab575f5ffd5b610e7982610e80565b5f60208284031215610ec4575f5ffd5b5035919050565b5f5f60408385031215610edc575f5ffd5b82359150610eec60208401610e80565b90509250929050565b634e487b7160e01b5f52604160045260245ffd5b604051601f8201601f1916810167ffffffffffffffff81118282101715610f3257610f32610ef5565b604052919050565b5f67ffffffffffffffff821115610f5357610f53610ef5565b50601f01601f191660200190565b5f610f73610f6e84610f3a565b610f09565b9050828152838383011115610f86575f5ffd5b828260208301375f602084830101529392505050565b5f60208284031215610fac575f5ffd5b813567ffffffffffffffff811115610fc2575f5ffd5b8201601f81018413610fd2575f5ffd5b610fe184823560208401610f61565b949350505050565b5f81518084528060208401602086015e5f602082860101526020601f19601f83011685010191505092915050565b606081525f6110296060830186610fe9565b60208301949094525060400152919050565b5f5f6040838503121561104c575f5ffd5b61105583610e80565b9150610eec60208401610e80565b634e487b7160e01b5f52602160045260245ffd5b6001600160a01b038a168152602081018990525f600589106110a757634e487b7160e01b5f52602160045260245ffd5b8860408301528760608301528660808301528560a083015261012060c08301526110d5610120830186610fe9565b93151560e08301525090151561010090910152979650505050505050565b5f5f5f60608486031215611105575f5ffd5b833567ffffffffffffffff81111561111b575f5ffd5b8401601f8101861361112b575f5ffd5b61113a86823560208401610f61565b9660208601359650604090950135949350505050565b602081525f610e796020830184610fe9565b5f5f5f60608486031215611174575f5ffd5b835167ffffffffffffffff81111561118a575f5ffd5b8401601f8101861361119a575f5ffd5b80516111a8610f6e82610f3a565b8181528760208385010111156111bc575f5ffd5b8160208401602083015e5f6020928201830152908601516040909601519097959650949350505050565b60208082526024908201527f535550504c595f434841494e3a20496e76616c696420736869706d656e7420736040820152637461746560e01b606082015260800190565b5f6001820161124757634e487b7160e01b5f52601160045260245ffd5b5060010190565b600181811c9082168061126257607f821691505b60208210810361128057634e487b7160e01b5f52602260045260245ffd5b50919050565b601f82111561039857805f5260205f20601f840160051c810160208510156112ab5750805b601f840160051c820191505b818110156112ca575f81556001016112b7565b5050505050565b815167ffffffffffffffff8111156112eb576112eb610ef5565b6112ff816112f9845461124e565b84611286565b6020601f821160018114611331575f831561131a5750848201515b5f19600385901b1c1916600184901b1784556112ca565b5f84815260208120601f198516915b828110156113605787850151825560209485019460019092019101611340565b508482101561137d57868401515f19600387901b60f8161c191681555b50505050600190811b01905550565b8381526001600160a01b03831660208201526060604082018190525f906113b590830184610fe9565b9594505050505056feb19546dff01e856fb3f010c267a7b1c60363cf8a4664e21cc89c26224620214e0ce23c3e399818cfee81a7ab0880f714e53d7672b08df0fa62f2843416e1ea09a26469706673582212205080fc90ea43d21431e4b826bdc96ccf9de50d5e0e067e3c09ee56d4844e3bef64736f6c634300081c0033","linkReferences":{}},"methodIdentifiers":{"DEFAULT_ADMIN_ROLE()":"a217fddf","OWNER_ROLE()":"e58378bb","PACKAGE_ROLE()":"72f72927","VERIFIER_ROLE()":"e7705db6","acceptShipment(address)":"fd96c4e9","approveShipmentEvent(address)":"7a84c950","createShipment(address,address)":"ad0f1dd7","decodeShipmentEvent(bytes)":"5039d681","denyShipment(address)":"34687cbd","encodeShipmentEvent(string,uint256,uint256)":"fe05d57a","getRoleAdmin(bytes32)":"248a9ca3","grantAdminRole(address)":"c634b78e","grantRole(bytes32,address)":"2f2ff15d","grantVerifierRole(address)":"0337c061","hasRole(bytes32,address)":"91d14854","proposeShipmentEvent(bytes)":"51a40c19","renounceRole(bytes32,address)":"36568abe","revokeRole(bytes32,address)":"d547741f","shipments(address)":"d51cd4ac","startShipment(address)":"0e3702cb","supportsInterface(bytes4)":"01ffc9a7"},"id":27}